:020000040800F2
:100000000000032055110008B9720008E5720008CD
:10001000F5720008397300084973000800000000F9
:10002000000000000000000000000000C14D0108B9
:100030005973000800000000214E01085B7300089E
:10004000A9110008A911000865720008A91100088B
:10005000A9110008AD720008314F0008514F000887
:10006000714F0008914F0008B14F0008B1710008AE
:10007000BD710008C9710008D5710008E171000860
:10008000ED710008F9710008A91100086D730008EE
:1000900061730008A9110008D1A60008D14F00081B
:1000A000A91100088D71000899710008A571000858
:1000B00081710008A9110008A9110008A911000800
:1000C000A9110008A9110008A9110008A911000828
:1000D000F1CC0008C1CC0008A9110008A911000842
:1000E00049500008A9110008A9110008A911000829
:1000F000737300086F730008597200088973000851
:1001000095730008A9110008A9110008A911000899
:10011000A9110008A91100087973000805720008E8
:10012000117200081D72000829720008357200085B
:0C013000417200084D720008A91100087F
:1001400007B501218DF807000DF1070011F083FFBD
:1001500003B05DF804FB0FB407B504A951F8040B14
:10016000019100F0CFFF03B05DF804EB04B07047DD
:1001700000F0D6BF10B504465AF02CF901462046CF
:1001800011F069FF01210446024811F064FF204488
:1001900010BD00BF708A090807B50121019001A8B0
:1001A00011F059FF03B05DF804FB07B50121019080
:1001B00001A811F050FF03B05DF804FB0CB407B5C3
:1001C00004AB53F8042B019300F0AAFF03B05DF8D1
:1001D00004EB02B0704708B511F069FF002008BDBC
:1001E00008B594460FF00AFB08B59C460FF006FBD5
:1001F0009A4238BF8854704770472DE9F84F9946A6
:100200000D9B15469A07DDE90B4706468B4622D023
:100210002A460A9901EB04081444A2421FD10D9BFF
:100220009B0705D5A2EB0508474505EB08041FD839
:100230002046BDE8F88F4B4659462020B04708F1CC
:100240000108B8450AEB0802F5D33A1BBC4288BF47
:1002500000222A44DDE7A046A5EB040AF1E702F1FB
:10026000010A18F8010D4B465946B0475246D4E7EB
:100270004B46224659462020B04708F10108D3E7F3
:100280002DE9F047DDE90D7616F0020FDDE908549F
:10029000DDE90BC89DF828E01FD106F001094FB138
:1002A000B9F1000F06D0BEF1000F02D116F00C0F0D
:1002B00000D0013F4FF0300A04E0202C04D005F8B4
:1002C00004A00134A045F8D84FF0300AB9F1000F6E
:1002D00003D0BC4201D21F2C34D916F0100F1FD00E
:1002E00016F4806F33D194B3444501D0BC422ED173
:1002F000B4F101082AD0BCF1100F33D1023C16F042
:10030000200F31D11F2C15D84FF0780C05F804C000
:1003100001341F2C0ED84FF0300C05F804C0013406
:100320001F2C07D8BEF1000F23D04FF02D0C05F87D
:1003300004C00134CDE90A76CDE90854BDE8F047A0
:10034000FFF75BBF05F804A00134BFE74446BCF1EA
:10035000100FD4D0BCF1020FDBD11F2CEAD84FF024
:10036000620CD3E74446F5E71F2CE3D84FF0580C56
:10037000CCE716F0040F02D04FF02B0CD7E716F0A5
:10038000080FD7D04FF0200CD1E72DE9F04391B002
:10039000189D1A9E1D9F0DB927F010077C0500D5EA
:1003A00015B317F0200F14BF4FF0410E4FF0610E40
:1003B000AC460DF120080025AEF10A0EBCFBF6F9A3
:1003C00006FB19C95FFA89F4B9F1090F94BF3034FB
:1003D0007444E4B2B44508F8014BBCFBF6F405F1F3
:1003E000010501D3202D10D11C9C05941B9C069760
:1003F000CDE903649DF86440CDE9015408AC009454
:10040000FFF73EFF11B0BDE8F083A446D6E72DE923
:10041000F04F2DED048B93B0DDE92065289F9A46BF
:1004200056EA050308BF27F0100709EE102A7A05DF
:10043000DDE924B908EE100A08EE901A02D556EA52
:1004400005033DD017F0200F14BF412361230A3B61
:100450000DF12808002409935A464B463046294698
:1004600059F0F6FAD2B2092A8ABF099B3032D21863
:100470005E45D2B275EB090308F8012B04F10104C3
:1004800001D3202C19D1279B0593269B0697CDE9F4
:1004900003B39DF88830CDE901430AAB009319EE10
:1004A000102A18EE901A18EE100A5346FFF7E8FECD
:1004B00013B0BDEC048BBDE8F08F06460D46CBE7CC
:1004C0000024E0E7000000002DE9F04F2DED088B3F
:1004D0008DB01D46DDE920B39DED1E7B0A93229B66
:1004E000079208EE900AB0EE479AF0EE679A0C4633
:1004F000069351EC170B53EC172B59F00BF980B105
:10050000CB4B51EC190B4FF0FF3259F02BF940B99E
:1005100051EC190B4FF0FF326FF4801359F004F9CE
:1005200090B1069B22930A9B079A18EE900ACDE998
:1005300020B321462B468DED1E9B0DB0BDEC088BE4
:10054000BDE8F04F00F08CB951EC190B00220023EC
:1005500059F0EAF8002800F03F8119EE903A19EEC0
:10056000108A03F10049069B9FEDB27A9FEDB28A93
:1005700013F480630B93C9F30A53A3F2FF3307EE1E
:10058000903AC9F31302F8EEE77A42F07F51AB4B91
:100590004FF00002404641F4401108BF4FF0060BF7
:1005A000A7EE878A58F096FC9BA3D3E9002358F066
:1005B00049FE064618EE100A0F4658F0EBFD0246BB
:1005C0000B463046394658F087FC59F0EBF807EEF9
:1005D000900AB8EEE77ADFED9A7AB6EE008AA7EED7
:1005E000278A8246DFED977ABDEEC88AF8EEC86AA0
:1005F00067EEE67ADFED946AE7EE267A17EE900A68
:1006000058F0C8FD02460B4606460F4658F01AFE43
:10061000324641EC1A0B3B463046394658F05CFCFA
:100620008A4B41EC1B0B002251EC1A0B58F034FFA3
:10063000874B002258F050FC02460B4651EC1A0B37
:1006400058F02AFF834B002258F046FC02460B4626
:1006500051EC1A0B58F020FF324641EC1A0B3B4686
:1006600000204FF0804158F035FC02460B4651EC1B
:100670001A0B58F031FC02460B4651EC1B0B58F09C
:100680000BFF754B002258F027FC18EE103A03F2CE
:10069000FF363305002258F0D5FD42464B4606464C
:1006A0000F4659F05FF8002840F09980CDE90867BF
:1006B0000AF16303C72B069B34BF042605261905E0
:1006C00023D557A3D3E900234046494659F040F8C3
:1006D000002800F08F8054A3D3E900234046494608
:1006E00059F022F8002800F08580069BD345C8BF4A
:1006F000ABEB0A0B43F480634FF00006CCBF0BF169
:10070000FF3B4FF0000B0693B2460A9B9E4238BF58
:100710009F1B069B28BF002713F002030B9302D0F8
:10072000002E18BF0027BAF1000F07D040464946F7
:10073000DDE9082358F0B0FE8046894651EC190BDC
:100740000022002358F0F0FF10B109F10043994650
:10075000069B079ACDF808B023F40063CDE9037334
:10076000CDE9008918EE900A2B46214600F078F872
:100770006EB3069B13F0200F00F1010802462B46D2
:1007800014BF45206520214618EE907AB84705230E
:10079000059300220A238AEAEA70CDE90232A0EB2F
:1007A000EA704FEADA73013E019300902B4618EE8F
:1007B000900A049642462146FFF7E7FD0B9B33B1B2
:1007C000079BC61A079B98190A9BB3421BD80DB00A
:1007D000BDEC088BBDE8F08F59EC198BC3E61C4BC0
:1007E00000223046394658F057FE0AF1FF3ACDE96B
:1007F00008015DE7BBF1000F87D00B9B002B84D075
:100800000BF1FF3B81E7024618EE907A2B4621461A
:100810002020B8470136D5E700000060A787D23F07
:10082000000000E0E2361A3F0000000080842E4104
:10083000FFFFEF7F9B209A3E4451343E0000F83F7B
:10084000789A54401872313F8E5D134000002C405E
:1008500000002440000018400000F03F00000000AD
:100860002DE9F04F2DED088B8FB0DDE920AB09EEBF
:10087000103ADDE9225308EE100A08EE902A0F46DE
:10088000049352465B4650465946249E58F042FF18
:10089000A0B9049B229303232193B94B2396209361
:1008A00018EE902A19EE103A18EE100A39460FB0D9
:1008B000BDEC088BBDE8F04FFFF79FBC4FF0FF3257
:1008C0006FF480135046594658F02EFF30B1049B08
:1008D0002293042321932396AA4BE0E7AA4B4FF0DF
:1008E000FF325046594658F03DFF70B1A74A04996F
:1008F000239606F00403002B08BF0322A44B1CBF61
:1009000013460422CDE92121C9E799A3D3E90023A5
:100910005046594658F026FF38B997A3D3E900232B
:100920005046594658F000FF98B1049B2496CDE9F3
:10093000225318EE902A19EE103A18EE100A394692
:10094000CDE920AB0FB0BDEC088BBDE8F04FFFF751
:10095000BBBD002200235046594658F0E5FE002852
:1009600000F081805B4652460020002158F0B2FA28
:10097000012382468B46059316F4806F08BF062537
:1009800006ABA5F12002A9463021B9F1090FA5EB6C
:10099000090406D909F1FF394A4503F8011BF4D1CE
:1009A00020245946504658F0FDFE7A4B03EBC9030C
:1009B00093ED007B0546B0EE47AAF0EE67AA58F02B
:1009C000D7FB02460B465046594658F083FA53EC83
:1009D0001A2B58F037FC02460B4643EC1B2B58F001
:1009E00009FF804658F0B4FB02460B4651EC1B0B46
:1009F00058F070FA02460B4643EC1B2B664B002264
:100A000058F0B0FE88B308F10108404658F0A0FB4A
:100A100002460B4651EC1A0B58F090FE10B101350E
:100A20004FF00008B9F1000F50D1284658F0A0FB54
:100A300002460B465046594658F04CFA564B002297
:100A40008046894658F070FE30B1534B0022404634
:100A5000494658F087FE10B1E80700D5013506ABCE
:100A600023440A2259E0059086E74B4B51EC1B0BBF
:100A7000002258F059FE0028D4D1B8F1000F02D05E
:100A800018F0010FCED008F10108CBE7B8FBF1F068
:100A900001FB10823032B8F1090F03F8012B09F184
:100AA000FF3904F1010428D8A14406AA3021202CE2
:100AB00011D04C4504F1010321D104F138020DEBB2
:100AC00002042E2204F8202C1C46C8E706AB23445F
:100AD0000A21202CDAD106F00303012B06AB39D111
:100AE000049A002A36D0059A12B916F00C0F02D0DB
:100AF000049A013A0492302214E08046E9E7A154B6
:100B00001C46D4E795FBF2F102FB1155303503F892
:100B1000015B01340D460029DDD0202CF2D1DAE74B
:100B20001A5501340499A14214D9202CF8D1049A01
:100B30000093CDE9014219EE103A18EE902A18EE12
:100B4000100A03963946FFF758FB0FB0BDEC088B2F
:100B5000BDE8F08F202CEAD0059AFAB104F13802F2
:100B60006A442D2102F8201C0134E0E7AFF3008035
:100B70000000000065CDCD410000000065CDCDC175
:100B8000C7F90908CBF90908FFFFEF7FC2F9090887
:100B9000BEF90908D0F909080000E03F710704D543
:100BA00004F138026A442B21DCE73207BFD504F197
:100BB00038026A442021D5E708B1FFF7C1BA70476F
:100BC0002DE9F04F91B000290A93BA4B1A9E904636
:100BD00014BF8146994600250A9B187858B94545A7
:100BE0002CBF08F1FF322A4643460020C84728465A
:100BF00011B0BDE8F08F0A9B252803F101030A9389
:100C000006D02A466C1C43460B91C8472546B6E1E0
:100C1000002206E02D2B14D0302B0CD142F0010223
:100C20000A900A9810F8013B2B2B0DD0F2D8202BFC
:100C30000DD0232B0ED0A3F13004092C28D8002787
:100C400010E042F00202EBE742F00402E8E742F073
:100C50000802E5E742F01002E2E70A2404FB073746
:100C6000303F0A900A9810F8013BA3F13004092C98
:100C7000F3D90A9B1B782E2B67D10A9B581C5B78F3
:100C8000A3F13004092C42F4806255D8002411E00D
:100C90002A2B08D156F8047B0A90002FBCBF42F0E3
:100CA00002027F42E5E70027E3E70A2000FB043465
:100CB000303C604684461CF8013BA3F1300EBEF187
:100CC000090FF2D9034613F801CBBCF16C0F48D0E1
:100CD0003ED8BCF1680F4DD0BCF16A0F55D0034629
:100CE00013F8010B0A9378288BD8572850D8452839
:100CF00005D086D9462800F02F81472881D100F001
:100D0000DF03472B04BF00F0FD0042F400624528DA
:100D100008BF42F02002CDE90372073626F007062D
:100D20000294F6E802234846CDE9002343462A46CA
:100D30000B91FFF7C9FB21E12A2B07D156F8044B91
:100D40000A9824EAE4740230BCE70A980024B9E760
:100D5000BCF1740F02D0BCF17A0FC0D142F48072A2
:100D6000BEE790F801C0BCF16C0FF7D142F44072BD
:100D7000831CB5E790F801C0BCF1680F02D042F0C7
:100D80008002ADE742F0C002F2E742F40072A7E74A
:100D9000A0F15803202B3FF634AF0FF2080C5CF89B
:100DA00023F000BF290E0008030C0008030C000804
:100DB000030C0008030C0008030C0008030C0008D7
:100DC000030C0008030C0008030C0008290E00089F
:100DD000830F0008290E0008FF0C00085D0F0008B3
:100DE000FF0C0008030C0008290E0008030C000883
:100DF000030C0008030C0008030C0008030C000897
:100E0000290E0008CB100008030C0008030C000892
:100E1000FF0F0008030C0008290E0008030C00084F
:100E2000030C0008290E0008782800F06481582877
:100E300000F05F816F2800F06081622800F05F8120
:100E4000692822F010024FF00A0303D0642801D071
:100E500022F00C0212F4806F18BF22F00102692800
:100E600002F4007C01D0642841D1BCF1000F23D0F2
:100E7000073626F00706B24676685AF8080B049340
:100E800000230593F30F002E0293CDE90772069419
:100E9000034602DA434266EB4606CDE90036434696
:100EA0002A4648460B91FFF7B2FA0B99054656467B
:100EB00092E600BFF9010008D00506F1040A0CD53E
:100EC0003068CDE90472CDE9023400284FEAD073CE
:100ED0000193B8BF4042009027E012F0400F306805
:100EE00001D0C0B2EDE7160648BF00B2E9E7BCF199
:100EF000000F0ED0CDE907720022CDE9043207368B
:100F000026F0070A06940292FAE80223CDE90023AC
:100F1000C5E7D00506F1040A0ED5CDE90472CDE986
:100F20000234CDF804C03368009343462A4648464D
:100F30000B91FFF72AFAB8E712F0400F306807D09C
:100F4000C0B2CDE902340023CDE904720193C2E7B7
:100F5000160648BF80B2F4E742F02002CDE90372E2
:100F6000073626F007060294F6E802234846CDE944
:100F7000002343462A460B91FFF772FC05460B9966
:100F80002AE612F0020426D04FF0010A56F8040BAC
:100F90000B9143462A46C0B2C84705F1010B0B9995
:100FA0005CB354465A4620E00B9143462020C84784
:100FB0000B990AEB05020AF1010A5745F4D8002FF4
:100FC00007F1FF3308BF002307F1010A1D4408BFE2
:100FD0004FF0020ADAE7A246EBE70B9143462020E6
:100FE000551CC8470B9901342A46BC42F5D3A7EBE0
:100FF0000A03574538BF00239B445D46ECE5334662
:10100000002C53F804AB0B9314BF23464FF0FF336F
:101010005344D3469BF8000008B19B4511D112F40C
:101020008063ABEB0A0B0C9302D0A34528BFA34609
:1010300012F002030D931BD1ABEB05032A460E936E
:1010400009E00BF1010BE5E70F9143462020561C08
:10105000C8470F9932460E9BD3189F42F4D8A7EB8E
:101060000B035F4538BF00230BF1010B1D449B446C
:101070005646A5EB0A0A05E01C460E9143462A4651
:10108000C8470E990AEB060516F8010B28B10C9B10
:10109000002BF2D0631E002CEED10D9B9BB12A4693
:1010A000ABEB050406E00C9143462020561CC847D4
:1010B0000C9932461319BB42F5D3A7EB0B035F45DE
:1010C00038BF00231D440B9E86E542F02102082311
:1010D000CDE90343059200231022CDE9013256F8F1
:1010E000043B00932A46434648460B91FFF74DF9CF
:1010F00044E742F020021023AAE60823A8E60223D0
:10110000A6E600BF1FB5034600914FF0FF3203A9CA
:101110000248FFF755FD05B05DF804FBB90B000868
:1011200007B5009313460A4601460348FFF748FDFA
:1011300003B05DF804FB00BFF1010008D458C450AF
:101140000433C4188C42F9D37047036004308842DA
:10115000FBD370470C48854600F086F80B480C49D5
:101160000C4A0023FFF7EDFF0B480C490023FFF763
:10117000EEFF0B480B490023FFF7E9FF58F01AFE7A
:1011800000F01AF8FEE7000000000320080000202D
:101190007406002040940B08780600207C2700206D
:1011A000E00103208B120320FEE708B501F0A2FD49
:1011B00011F06EF8002008BD10B511F013F901F020
:1011C00079FD1D4A1D4800234FF4805110F091FD18
:1011D00004461B4806F0AEF964200EF0E0FC09F06E
:1011E00089FB012810D0174A1168928809690A42C0
:1011F0000AD0032818D1144806F09CF900F064F9CD
:10120000002009F065FB07E0104806F093F9002084
:1012100009F05EFB0CF0A8FF07F0BCFB11F0EEF844
:10122000DFF830C00EF0EAFA094806F083F92046EC
:1012300010F082FDF2E700BFAB11000820FA0908A8
:1012400025FA0908B40B0A0830FA090829FA09082E
:1012500037FA09083DFA090808B5DFF808C00EF0AA
:10126000CDFA00BF4CFA0908174B00219960D3F85A
:10127000882042F47002C3F888204FF0B0436FF426
:10128000827C1A6842F001021A604FF4E0229A60F0
:101290001868A2F1A262624402401A60D3F8942056
:1012A00022F00502C3F89420D3F8982022F001021E
:1012B000C3F89820054ADA601A611A6822F480227D
:1012C0001A609961704700BF00ED00E00010042231
:1012D00010B5ADF5906D00210446FB2203A8ADF8D2
:1012E0000610029158F034FE204610F052F91748CB
:1012F00042A919F00AF918B100200DF5906D10BD42
:10130000124901228AA818F0CFFA0028F4D10DF171
:101310000603FF2202A98AA818F054FC60B9BDF8A0
:1013200006304BB1FF2B07D002A9204610F0A9F9D7
:101330000421204610F02BFB8AA818F0C4FE20469A
:1013400010F04EFA80F00100C0B2D6E765770B08C6
:10135000F0B5ADF5617D044610F08CF902A919F0E5
:10136000D4F820B1002528460DF5617DF0BD20465A
:1013700010F080F9012201464AA818F095FA0446B7
:101380000028EFD102980EF0A7FC274606464FF63C
:10139000FF750DF106034FF6FF7231194AA8ADF83B
:1013A000067018F00FFC20B9BDF806301C44AC42A2
:1013B000EFD0DDE9022300259D4208BF94420CD105
:1013C0004CF0CEF9A2B2314605464CF06BFA044619
:1013D00018B928464CF0F6F925464AA818F073FECD
:1013E00030460EF07BFCBEE72DE9F043ADF5637DA2
:1013F0000F4610F048F80546F86810F03BF9014632
:1014000028462FF0D9F9284610F034F904A919F02C
:101410007CF820B1284610F086F8002049E02846E4
:1014200010F028F9012201464CA818F03DFA0446B4
:101430000028EFD1284610F076F804980EF04CFC06
:1014400025460646A1464FF6FF7871190DF10E03A9
:101450004FF6FF724CA8ADF80E90019118F0B2FB58
:1014600058B92046BDF80E2001992EF028FABDF893
:101470000E301D4445450446E7D0DDE90423002B2A
:1014800008BF954219D13B69A34216D172B64FF0FD
:101490000050049A314658F041FD0A4A136823F07F
:1014A000070343F003034FF00050136001F07AFC90
:1014B00001200DF5637DBDE8F08330460EF00EFC93
:1014C000ABE700BF00000140F8B502F01FF909F0DA
:1014D000A7F905F0ADFD09F0A3FE00F04FFE09F0FD
:1014E000FFFC58B14FF40E700EF0F6FB214F224D69
:1014F0003860002400F03EFF844200DBF8BD04F0B9
:10150000010080F0010000F037FF28B14FF47A703D
:101510000EF045FB0134EDE738680122294618F04A
:101520009DF90028F6D10FF0A5FF04460FF0A2FFA9
:101530000546FFF7CDFE90B12846FFF709FF0646A6
:1015400068B1284610F096F821462FF01DF9314673
:101550002046FFF749FF10B930464CF033F92846D2
:101560000FF0E1FF20460FF0DEFF3868BDE8F840DD
:101570000EF0B4BBA806002021DC090808B54FF026
:10158000FF320021032010F0C8FC820704D4C307F7
:10159000F5D514F0FBFBF2E7002008BD074B1B68F4
:1015A00010B5044633B14068083014F0D3FE10B1D2
:1015B0000123237010BD2070FCE700BFAC060020A3
:1015C00030B9074B1B684FF0FF3118680FF09AB91C
:1015D000012804D1024B1B6818680FF0B5B9704799
:1015E000AC06002070B50C2094B00EF075FB2E4CAC
:1015F0000546206000200FF061F9002128600120DD
:1016000025680FF0DFFB68602568284A28484FF4FA
:1016100080612B4610F06DFB2368A860986810F07D
:101620008BFB244A92E8030001AB83E803001946D0
:10163000214814F081FB0E22002103A858F088FCF9
:101640000D238DF80C3001238DF80D3002241B4B37
:10165000049303A88DF80E4014F023FB034620B139
:10166000174A184920460EF0CFFA174B07AA03F184
:101670003006154618685968144603C40833B34247
:101680002246F7D11B782370284614F0D1FA04467D
:1016900028B103460D4A0B4902200EF0B5FAB4FA00
:1016A00084F0400914B070BDAC0600207D15000820
:1016B000FCFA0908540D09089D150008E0010320F3
:1016C00009FB0908D2000A085C0D09082AFB090871
:1016D000024B036040F2EC730B807047E001032083
:1016E00010B5134C23680BB3986810F05FFB022110
:1016F00010F091FB2368986810F06CFB23689868E1
:1017000010F0DBFA236818680FF0F6F823685868C1
:101710000FF07CFB20680EF0E1FA00212160054803
:10172000BDE8104040F20B1258F012BC10BD00BFD3
:10173000AC0600202800032008B5064B1B683BB10F
:10174000986810F033FBBDE80840012110F063BB3E
:1017500008BD00BFAC060020034B1B6813B15868DE
:101760000FF082BB704700BFAC060020044B1B6823
:1017700023B158684FF0FF310FF04CBB704700BFEA
:10178000AC06002010B54468B4F80B30B3F5124F26
:1017900013D1184A184904200EF036FA627B174B11
:1017A00032B91A68022111751B6802221A7310BD22
:1017B000012A04BF19680A75F6E749F2012293422B
:1017C00006D1BDE810400E4A0B4902200EF01CBAAB
:1017D00049F202229342EAD1084B1A681369002B9E
:1017E000E5D0D4F81110D4F80D00D26BBDE810404C
:1017F00089B2184748FB090856FB0908B0060020C3
:101800005CFB090810B54FF0FF320021032010F0F7
:1018100084FBC207044601D514F0B8FBA307F2D538
:10182000002010BD10B1012807D07047054B1B6880
:101830004FF0FF3118680FF065B8024B1B6818684D
:101840000FF082B8B0060020024B1B681861D96304
:10185000704700BFB006002070B5402088B00EF081
:101860003BFA00254FF0B04205739368204C43F4D7
:10187000004320609360D2F8803423F0070343F0E4
:101880000403C2F8803414F015FC284626680FF0D3
:1018900015F829463060012026680FF093FA256874
:1018A000144A70602B464FF48061134810F021FAFF
:1018B0002368A860114C986810F03EFA6946104BF6
:1018C00010480094019314F037FB04F586730293DB
:1018D00004F50673039302A840F23C5304F54974DF
:1018E0000593049414F0A6FC14F0E2FB08B070BD5C
:1018F000B00600200518000878FB0908CC09032071
:101900002518000885170008014B18681430704727
:10191000B00600202DE9F047534E8AB004463368E4
:101920001D7B022D62D0013C01200EF000F9002C3D
:10193000F5DC4E4A4E4902200EF066F9336801226A
:101940001A734DE04B4B53F822304B4ACDF80080D0
:10195000CDE9019314213B465046FEF72FFC9DF83C
:10196000223084F833309DF8233084F834309DF8E9
:10197000243084F835309DF8253084F836309DF8D1
:10198000263084F837309DF8273084F838303468B2
:10199000374994F8382094F83330049294F837207B
:1019A000039294F83620029294F83520019294F82C
:1019B000342000920420314A0EF026F9627F637DC4
:1019C0000592A27F0492627E0392227E0292E27DC1
:1019D0000192A27D00922649294A04200EF014F9B2
:1019E000AB1E584258410AB0BDE8F087197D254A20
:1019F000254B0420012918BF1346244A1C490EF028
:101A000003F906A814F05AF934689DF81B302376C0
:101A10009DF81C3063769DF81D30A3769DF81E302E
:101A2000E3769DF81F3023779DF8203063779DF88B
:101A300021309DF818709DF819809DF81A906775EF
:101A40005A1ED2B2062A84F8168084F81790A3771B
:101A500004F11F0A7FF676AF0D4A0E480321FEF708
:101A6000ADFB0C4B71E700BFB00600202EFC09084F
:101A700056FB090850FD0908A6FB0908B2FB090836
:101A8000E2FB090840A0090886FB09088AFB09084F
:101A900059BD0908B406002070B5164D2B681E7B91
:101AA000022E25D1FFF79EFD0446B0B1124A13491C
:101AB00004200EF0A9F82B6803221A73012014F0F9
:101AC000E1F830B90E4A0D4904200EF09DF8204689
:101AD00070BD0C4A09493046F7E70B4A07493046C2
:101AE0000EF092F82B6804221A73FFF7F9FDEEE767
:101AF0000024ECE7B006002040FC090856FB09086A
:101B000054FC09087CFC0908ACFC0908044B186863
:101B100020B1007B012894BF00200120704700BF46
:101B2000B0060020034B186818B1007BC31E584252
:101B300058417047B006002030B5044685B018B94A
:101B4000DFF8B4C00DF05AFE254B1B68187DA0428B
:101B500042D0012818D1022C0AD15B6923F07F43BF
:101B600023F0FF0333B91F4A1F4903200EF04CF83E
:101B700002202FE014F040F8034678B31B4A1A49BC
:101B800020460EF041F8F3E70228F1D1012C21D1D3
:101B900000230DF10F008DF80F3013F0F7FF9DF8C3
:101BA0000F30009305460346114A0F4905200EF0F9
:101BB0002BF8FF2D0DD10DF10F0013F0E7FF9DF86D
:101BC0000F20009203460B4A074905200EF01CF82F
:101BD0000324204605B030BD0120FBE70320F9E7D0
:101BE000B0060020C7FC090856FB0908DEFC0908FE
:101BF0000CFD090826FD09085457090810B51C4CAE
:101C00002368002B32D0986810F0D0F8022110F031
:101C100002F92368986810F0DDF82368986810F0DE
:101C20004CF8236818680EF067FE236858680FF0B8
:101C3000EDF840F23C5200210E4858F089F940F28C
:101C40000B1200210C4858F083F94FF485720021E3
:101C50000A4858F07DF94FF485720021084858F081
:101C600077F920680EF03AF80023236010BD00BF1A
:101C7000B0060020F00C0320CC090320E40B032065
:101C8000D80A032008B5064B1B683BB1986810F0D2
:101C90008DF8BDE80840012110F0BDB808BD00BFB7
:101CA000B0060020034B1B6813B158680FF0DCB876
:101CB000704700BFB0060020044B1B6823B1586872
:101CC0004FF0FF310FF0A6B8704700BFB0060020FC
:101CD00008B513F0CAFFB0FA80F0400908BD000053
:101CE0001FB50B4B8DF80F001B68198918880DF173
:101CF0000F0300930022012314F0A2FE034620B13B
:101D0000044A054902200DF07FFF05B05DF804FB91
:101D1000B80600206CFD090891FD090830B543782C
:101D2000FF2B87B0044640F08B80B0F8033040F6BC
:101D3000014293426CD1434DB0F807102B685A888A
:101D4000901C814208D1404A404905200DF05CFFBB
:101D50000124204607B030BD0132914244D1B4F88D
:101D60000B303B4A394905200DF04EFF2B689A692C
:101D7000002AEDD0D8684FF0FF310EF0C3FD18B146
:101D8000DFF8DCC00DF03AFD2A68B4F80B30928A17
:101D9000934205D900922D492E4A03200DF034FFBD
:101DA0002B68B4F80B109A8AADF8141088B28242EE
:101DB0008CBF121A921A9A820D3400228DF80C20D0
:101DC000049406AA12E90700D3E90643A047224A71
:101DD0001E49034605200DF017FF2B68D8680EF04A
:101DE000B3FD0028B4D0CBE71A890132914227D144
:101DF000647B2CBB9D69002DABD00221DB6905946F
:101E0000CDE9034403AA8DF80C1007CAA847A0E740
:101E100040F61742934213D10C49104A06200DF0A8
:101E2000F3FE084B19688D69002D91D00023012421
:101E3000CDE90333059303AACB698DF80C40E4E7A1
:101E4000002486E7B80600209DFD090891FD0908D9
:101E5000B1FD0908C3FD090812FE09082BFE090897
:101E60005457090810B5202086B00DF035FF424CBC
:101E70002060424814F064FA2368009340490C2320
:101E80000122022014F0BCFC034620B13D4A3E4929
:101E900002200DF0B9FE236833F8020B05930A22E5
:101EA0000123CDE9032302934FF0090C0E23CDE962
:101EB000003C364A4FF4F373022114F0F1FC034660
:101EC00020B1334A304902200DF09EFE236833F8DA
:101ED000040B05930A220123CDE903230022CDE957
:101EE0000132222300932B4A4FF4F373022114F0A2
:101EF000D7FC034620B1284A234902200DF084FE76
:101F0000236833F8060B05930A220023CDE9032347
:101F1000029301211223CDE90031204A042302213A
:101F200014F0BEFC034620B11D4A174902200DF0F3
:101F30006BFE236833F8080B059300220A23CDE9D2
:101F4000033201230922CDE901231A220092022142
:101F5000144A14F0A5FC034620B1134A0A49022092
:101F60000DF052FE0020FFF7BBFE002024680EF0AB
:101F7000A5FCE06006B010BDB80600201D1D0008DD
:101F800055000A0838FE090891FD090815000A08DD
:101F900059FE090825000A087DFE090835000A08CF
:101FA000A1FE090845000A08CFFE09081FB50B4B22
:101FB0001B68C3E90612020202F47F0218619882CC
:101FC00042EA0060D9880390188803AB009300228E
:101FD000042314F035FD05B05DF804FBB8060020BD
:101FE00030B5154C236885B0D8684FF0FF310EF03E
:101FF00089FC18B1DFF84CC00DF000FC23689D8A05
:102000008DB90E4A0E4905200DF0FEFD23681A69B0
:102010009A8211BA18880391D98803AB00932A4693
:10202000042314F00DFD2368D8680EF08DFC002801
:10203000E0D105B030BD00BFB8060020FBFE0908A6
:1020400091FD09085457090810B5244C2368002B4A
:1020500042D09988188814F025FD034620B1204A03
:10206000204902200DF0D0FD23685988188814F00B
:1020700019FD034620B11C4A1A4902200DF0C4FD87
:102080002368D988188814F00DFD034620B1174A3B
:10209000144902200DF0B8FD23681989188814F03E
:1020A00001FD034620B1124A0E4902200DF0ACFD9D
:1020B0002368188814F01CFD034620B10D4A094915
:1020C00002200DF0A1FD2368D8680EF015FC2068F1
:1020D0000DF004FE0023236010BD00BFB8060020F1
:1020E0001DFF090891FD090844FF09086BFF090855
:1020F0009CFF0908CBFF0908024B1868003818BF7D
:1021000001207047B8060020F0B5B1F5F37F85B027
:1021100006460D4627D8154F0C4614B9012005B0C8
:10212000F0BDF32C224628BFF3222B1BA41A5FFA22
:1021300082FCA4B23A6898B2002C16FA83F3118894
:102140009288CDE902C3CDE900500CBF02230023E1
:10215000002014F0F1FC03460028DED0044A0549B3
:1021600002200DF051FD0020D9E700BFB806002085
:10217000EFFF090891FD0908FFF7B2BD08B5034953
:10218000034819F041FB034B187008BDF408002008
:10219000B8000020F808002010B50824FF200DF03A
:1021A000CDFAFF2803D1013C14F0FF04F6D110BD95
:1021B0002DE9FF4141F040018DF80010110E8DF81E
:1021C0000110110C8DF8021043F00103110A9DF863
:1021D00028408DF80310074600208DF804208DF864
:1021E00005300DF08FFA062202A968460DF0A4FA18
:1021F000052C4ED8DFE804F003142E394D39FFF7D3
:10220000CBFFFF23044698461D461E4638463C70C9
:102210007E70BD7087F803803B7104B0BDE8F0812B
:10222000FFF7BAFF0446FF200DF088FA06460120AA
:102230000DF068FA4FF47A700DF0CFFC00200DF02D
:1022400061FAFF200DF07AFAFF280546F9D103461E
:102250008046DBE7FFF7A0FF0446FF200DF06EFA93
:10226000FF23064698461D46D0E7FFF795FF044634
:10227000FF200DF063FA0646FF200DF05FFA0546D9
:10228000FF200DF05BFA8046FF200DF057FA034661
:10229000BCE7FF2398461D461E461C46B6E710B510
:1022A0004FF6FF74FF200DF049FA013CFE28A4B25E
:1022B00003D0002CF6D1022010BD002C0CBF022050
:1022C0000020F9E737B5184C102520680095806884
:1022D00003230022012102F059FB20680095C06809
:1022E00003230022012102F051FB206800950069C0
:1022F00003230022012102F049FB23685A69116877
:102300009288AA408A619A6811689288AA408A6174
:10231000DA681B6911689288AA408A611A689B88EA
:10232000AB40936103B030BD240B002037B5104D96
:10233000286843691A689B889361052400940323E5
:1023400019468068012202F021FB286800940323CB
:102350001946C068012202F019FB28680094032383
:1023600000690122194602F011FB03B030BD00BF25
:10237000240B00200A2070472DE9F041854D864E40
:1023800086B00446284608F083FF35608CB106F01D
:1023900099FCFFF797FF08F093FDFA200DF0FFFB83
:1023A000FFF7C4FF08F058FD06F06AFC64200DF04A
:1023B000F6FB0DF0D3F9794B01221A708025002429
:1023C0008DF80F409DF80F30009401330022DBB2EE
:1023D00011468DF80F3004A89523FFF7E9FE012080
:1023E0009DF810800DF08EF9FF200DF0A7F99DF8F3
:1023F0000F30632B00F2C680B8F1010FE2D1052344
:102400004FF4D5720821009304A88723FFF7D0FE6C
:102410009DF8107040460DF075F9FF200DF08EF913
:1024200017F0040338D08DF80F409DF80F3000945A
:102430000133DBB2002237218DF80F3004A8FF23CF
:10244000FFF7B6FE01200DF05DF9FF200DF076F9E3
:10245000FF230022292104A80094FFF7A9FE0120F0
:102460009DF810700DF04EF9FF200DF067F99DF802
:102470000F30632B00F28680012FD6D0484B002707
:102480001C8000234348336008F016FF0DF0B4F8B9
:10249000384606B0BDE8F081012F73D18DF80F30BA
:1024A0009DF80F3000940133DBB2002237218DF804
:1024B0000F3004A8FF23FFF77BFE01200DF022F967
:1024C000FF200DF03BF9FF234FF08042292104A8A3
:1024D0000094FFF76DFE01209DF810700DF012F9C9
:1024E000FF200DF02BF99DF80F30632B4AD8012FF8
:1024F000D6D07B072ED58DF80F409DF80F30009475
:102500000133DBB2002237218DF80F3004A8FF23FE
:10251000FFF74EFE9DF8107001200DF0F3F8FF203C
:102520000DF00CF9012F2DD1FF230022292104A841
:102530000094FFF73DFE38469DF810800DF0E2F85C
:10254000FF200DF0FBF89DF80F30632B1AD8B8F17F
:10255000010FD2D0032300930022FF233A2104A8C5
:10256000FFF726FE9DF8107001200DF0CBF8FF203C
:102570000DF0E4F837B99DF81130094AC3F3801320
:1025800013807EE7013D15F0FF057FF419AF0127A9
:1025900077E700BFD0010020240B0020F9080020BD
:1025A000FA0800202DE9F04188B00022FF230446FC
:1025B0000092092102A8FFF7FBFD9DF80830A3B3A4
:1025C000012501200DF09EF8FF200DF0B7F8002244
:1025D000FF2300920A2102A8FFF7EAFD9DF80830C8
:1025E000002B00F00F81012601200DF08BF8FF2059
:1025F0000DF0A4F8CB4B1B8846EA0500012BC0B2B6
:1026000040F071814FF400732364A363A368C3F3A4
:10261000951301335A0BDB04C4E90C325B0A43EA1D
:10262000C253E36308B0BDE8F081FFF738FE05460A
:102630000028C5D104AF1026FF200DF07FF8013E21
:10264000B6B207F8010B002EF6D1FF200DF076F898
:10265000FF200DF073F89DF810209DF815109DF8DF
:1026600014009DF817709DF81860930943EA8203DF
:1026700023709DF8113063709DF81230A3709DF89F
:102680001330E3700A099DF8163042EA001201F097
:102690000F0142EA0132D90942EA0142D90201F4AA
:1026A00000310A43590301F480210A43D90301F49C
:1026B00000210A436168090D09050A4399496260CE
:1026C00008889DF81A20A168002840F087804FEA0A
:1026D000961C4CEA87074FEA832C0CF4406C47EABF
:1026E0000C07C3F3810343EA870377039DF81900BE
:1026F00007F4E02706F007063B4343EAC6434609D2
:1027000043EA0663460606F0605601F0C0313343E3
:1027100021F0C0010B434000A36000F00600237BC2
:1027200040EAD21060F3020323739DF81BC09DF8AA
:102730001C609DF81D309DF81E009DF81F1057006D
:1027400007F07E0747EADC17C2F3801242EA47022D
:102750000CF07F0CF70942EA0C2242EAC732F7027A
:1027600007F440373A433704B60007F4E01706F0A1
:102770000C0646EA93163A4342EA0662DE0506F084
:10278000805627693243684E3E403243226103F04F
:102790001F03C20943EA421300F0400213438200C0
:1027A00002F080021343020102F480721343C2015B
:1027B00002F4C062134300F003004A0843EAC02356
:1027C00043EA0243626901F0010102F0FF2243EA99
:1027D000C15322F4F85213436361F2E6BDF8186066
:1027E000380476BA9B0000F47C10B6B203F03C03C8
:1027F000304343EA971343EA801301F060410B43EF
:10280000A36092E7FFF74BFD064600287FF4EBAE8E
:102810000DF110080746FF200CF090FF0137102F34
:1028200008F8010BF7D1FF200CF088FFFF200CF017
:1028300085FF9DF8103023769DF811309DF8122009
:102840001B026383638B9BB2134363839DF8133036
:102850009DF814201B06E361E36943EA0243E36148
:10286000E3699DF8152043EA0223E361E2699DF8DC
:1028700016301343E3619DF8173084F820309DF83B
:10288000183084F821309DF819309DF81A201B0665
:102890006362636A43EA02436362636A9DF81B20D2
:1028A00043EA02236362626A9DF81C301343636249
:1028B00094F828209DF81D3042EA13121B0203F4FD
:1028C000706384F828206385638D9DF81E209BB279
:1028D000134363859DF81F305B0884F82C30012377
:1028E00084F82D3080E62389217BC3F38B035D1CA4
:1028F0004FF4007323646379012201F007011B097F
:1029000002FA03F3023102FA01F1A363A3FB0535D6
:10291000A3FB013201FB0525C4E90C355B0A43EA40
:10292000C5537EE6FA0800200000E0E02DE9F04FF4
:10293000012A85B007460E4690460ED108460CF097
:1029400083FE014648B14FF40072384657F0D8FA7A
:102950000025284605B0BDE8F08F002300934FF412
:102960000072FF23102102A8FFF722FC9DF80850F7
:1029700001200CF0C7FEFF200CF0E0FE3DB1012568
:1029800001200CF0BFFEFF200CF0D8FEE1E7DFF8DD
:1029900088B0BBF80030012B14BF4FF40074012441
:1029A0007443BA46C146B9F1000F07D1B8F1010F1F
:1029B000E6D1394630460CF061FEE1E70023009392
:1029C0002246FF23112102A8FFF7F2FB9DF80830F1
:1029D000002BD4D1FFF763FC0028D0D151464FF42F
:1029E00000720CF0A9FEBBF80030FF20012B0CBFD9
:1029F000013404F500740CF0A1FEFF200CF09EFEE3
:102A000001200CF07FFEFF200CF098FE09F1FF3949
:102A10000AF5007AC7E700BFFA0800202DE9FF4752
:102A20000C4605461144204616460CF03FFE002396
:102A300000934FF40072FF23102102A8FFF7B8FBA8
:102A40009DF8088001200CF05DFEFF200CF076FE62
:102A5000B8F1000F0BD04FF0010801200CF052FE2E
:102A6000FF200CF06BFE404604B0BDE8F087DFF8B5
:102A7000AC90B9F80030012B14BF4FF40071012164
:102A80004C43C246002EE8D0CDF800A0FF232246DA
:102A9000182102A8FFF78CFB9DF80870002FDAD1EF
:102AA000FF200CF04BFEFF200CF048FEFE200CF047
:102AB00045FE39464FF4007228460CF03DFEB9F849
:102AC0000030FF20012B0CBF013404F500740CF022
:102AD00035FEFF200CF032FEFF200CF02FFE0746E3
:102AE00007F01F07FF200CF029FE052FB3D10120AE
:102AF0000CF008FE00200CF005FEFF200CF01EFE7E
:102B0000FF280746F9D101200CF0FCFD38460CF0F7
:102B100015FE013E05F50075B4E700BFFA08002078
:102B20001FB5022300220D21009302A8FF23FFF707
:102B30003FFB01200CF0E6FDFF200CF0FFFD9DF8AF
:102B400008209DF80930134314BF0120002005B070
:102B50005DF804FB014B1878704700BFB4000020FB
:102B600073B50F4E0F4D01920C463046009308F09E
:102B70008FFBDDE900210C4B2E602046FFF7D6FECF
:102B800060B9FFF7CDFF04460028FAD100230448BE
:102B90002B6008F091FB204602B070BD0124F5E7E0
:102BA000B8010020240B002000E1F50573B50F4E9D
:102BB0000F4D01920C463046009308F069FBDDE9A9
:102BC00000210C4B2E602046FFF728FF60B9FFF76D
:102BD000A7FF04460028FAD1002304482B6008F020
:102BE0006BFB204602B070BD0124F5E7B801002060
:102BF000240B002000E1F5052DE9F0411A4B1C786B
:102C000014F0010492B00D4617462BD1174EDFF891
:102C10006080304608F03CFBC8F80060032D03D804
:102C2000DFE805F01E0D1319042400230F48C8F82F
:102C3000003008F041FB204612B0BDE8F081684644
:102C4000FFF7B0FC0F9B3B60EFE76846FFF7AAFC7D
:102C5000109B3B80E9E76846FFF7A4FC109BF2E776
:102C60002C46E2E70324E6E7B4000020B801002088
:102C7000240B002038B50C4C0C4D204608F008FB06
:102C80002C600B4C01232370FFF74AFF18B92378FF
:102C900003F0FE032370247803480023E4B22B6082
:102CA00008F00AFB204638BDB8010020240B0020A4
:102CB000B400002008B501F035F900F0BFFC06F0C3
:102CC000CDFE05F0A7FB08F09DFA02F00BFA04F028
:102CD00067FBBDE8084007F04FBF08B507F076FD79
:102CE00002F006FA08F0C6FA06F05EFFBDE80840FA
:102CF00000F0E0BC08B504F047FD00F007FD00F06F
:102D0000F3FF07F08DFD04F093F901F0E5FC06F008
:102D10004DFF1E491E4A04200CF076FF0BF0DAF836
:102D200008F07EFA02F0F8FE1A4A184904200CF066
:102D30006BFF08F00BF9184A144904200CF064FFEB
:102D400001F09AF902F0DAF905F038FC04F028FBFA
:102D500000F032F804F026FC00F06EFF0AF0B2F941
:102D60000E4A0A4904200CF04FFF0BF087F908F0D7
:102D700055FF04F059FD07F03FF8FFF7FFF9BDE8F4
:102D80000840074A014904200CF03EBF6D000A08C4
:102D900065000A0875000A0880000A088B000A0806
:102DA00092000A08002383F31188021D036883F34D
:102DB000088813689F46704710B50B4C206810B9FF
:102DC0000DF07CFD2060094B5A69002A08DBD3F81E
:102DD0009420074B9A4203D0DFF818C00CF00EFD88
:102DE000BDE81040FEF738BD00090020001400586F
:102DF000000400805457090808B5064B4FF0FF3116
:102E000018680DF07FFD18B1DFF80CC00CF0F6FC6F
:102E100008BD00BF000900205457090808B5054B3C
:102E200018680DF091FD18B1DFF80CC00CF0E6FC4D
:102E300008BD00BF0009002054570908014B18784D
:102E4000704700BF04090020034B1878013801289F
:102E50008CBF00200120704704090020024B187825
:102E6000831E584258417047040900202DE9F84359
:102E7000064688469146FEF755FE342404FB06F7C5
:102E800005462B4C50B92B4A2B4902200CF0BCFEB6
:102E90002A4B3C441C602846BDE8F883FFF7D4FF6A
:102EA000054608B9264AEFE70BF0D2F807F10E0302
:102EB0000168E150E218838893800BF0C5F807F1B0
:102EC000140301461222E01807F1080557F06DFAC5
:102ED00025447EB90BF076F82389184320812846D3
:102EE0004A4641460BF054FF0546A8B90CF050F88D
:102EF000144AC9E7012EF2D194F84430013384F822
:102F00004430114B1A68C4F849209A889B79A4F878
:102F10004D2084F84F30E2E7FFF796FF8046002807
:102F2000B6D0342046434546A3599847B0E700BF82
:102F3000CC0000209B000A08CB000A08FC080020F7
:102F4000D5000A080B010A0803010A0808B50CF0AD
:102F500009F8012894BF0020012008BD08B50CF035
:102F600001F8012803D1BDE808400BF0ABBE08BD55
:102F700008B5FFF7EBFF20B10BF0D8FEFFF7E6FF37
:102F800000B908BD01200CF0D2FDF7E710B50446EA
:102F90000BF038F920B12046BDE810400BF03AB9EB
:102FA00010BD08B50BF02EF918B1BDE808400BF0C4
:102FB0005BB908BDFEF78CBBFEF746BC38B5054CC7
:102FC000054DD4F8A030AB4202D00EF017FFF8E761
:102FD00038BD00BF0014005800040080024B4FF4BD
:102FE00080621A62704700BF0014005810B5FFF7E6
:102FF000E5FF13F07FFB044628B10346064A074964
:1030000002200CF001FE064B4FF48062201E1A6273
:1030100018BF012010BD00BF1E010A08CB000A081E
:103020000014005810B586B00446FEF76FFDF8B1E5
:103030000DF1160300930DF1110205AB0DF1120114
:1030400004A813F0FDFEBDF816300393BDF814304C
:1030500002939DF811300193BDF81230009302469F
:103060009DF81030064920460EF0ADFB06B010BDAD
:103070000449204606B0BDE810400EF0A4BB00BFD6
:1030800045010A08B4010A08FEF740BD10B5044620
:10309000002013F0BBFD20460021BDE8104013F0D6
:1030A00001BE13F025BE13460A46252113F0ACBF1E
:1030B000002213F081BF07B500230DF10600ADF823
:1030C000063013F0FBFEBDF8060003B05DF804FB0C
:1030D00013F056BE07B501A813F028FE50BB9DF8AB
:1030E00005209DF804309DF806109FED140A13EB9F
:1030F000022218D00B2916D807EE901AF8EEE77ABC
:10310000B1EE087AA7EE870A1E2A0FDC40F2A11161
:1031100044F2A06301FB02339B1207EE903AF8EEF3
:10312000E77A37EE800A03B05DF804FB30EE070A59
:103130005210E9E79FED020AF5E700BF0000FEC26A
:103140000000000007B5002301A8019313F084FDDF
:10315000019803B05DF804FB13F036BE08B5FEF726
:10316000EBFC012810D0032807D142F210700CF0BC
:1031700016FDDFF820C00CF041FB0346034A04496A
:1031800002200CF041FD002008BD00BFEA010A0842
:10319000CB000A08C2010A0838B52C4D4FF0FF31A8
:1031A00028680DF0AFFB2A4B5A69002A08DBD3F8D8
:1031B0009420284B9A4203D0DFF8B0C00CF01EFBDD
:1031C0004FF47A70FEF7A6FB044658B9224A234909
:1031D00002200CF019FDFEF711FD28680DF0B4FB7C
:1031E000204638BD0220FFF7B9FF04460028F4D07E
:1031F000FEF78AFB817A42788378032914D1F2B1F1
:103200000B2B1CD9164B01221A70FEF745FC044605
:103210000028E2D1134A114902200CF0F5FCFEF718
:10322000EDFCFEF75DFAD8E7012905D13AB10B2B89
:1032300005D90B4B0222E7E7094B00221A700A4A14
:10324000064902200CF0E0FC0024C6E7000900203B
:10325000001400580004008007020A08CB000A0886
:10326000040900201A020A08239209085457090881
:1032700008B51B4A1B4904200CF0C6FCFFF778FE7A
:10328000194A184904200CF0BFFC184B1B685B68F6
:10329000984713F0B7FD164A124904200CF0B4FC0D
:1032A000FEF71EFA0BF074FE124A0E4904200CF0D1
:1032B000ABFCFEF70DFD18B9DFF840C00CF09EFA2C
:1032C00064200CF06CFCFEF799FC0B4A05490420C5
:1032D0000CF09AFCFFF770FDBDE80840FFF75CBFFB
:1032E00036020A08CB000A0856020A08FC08002029
:1032F00074020A0892020A089D020A085457090833
:1033000013B50446CDE90021FFF7B2FFDDE9002146
:103310002046FFF7ABFD28B1034B342202FB0434F7
:10332000024B1C6002B010BDCC000020FC08002045
:1033300007B50BF0EBF908B90BF026F80AF062FFBD
:1033400008B90AF0C9FF0BF0F3FF08B90BF07AFED9
:1033500008200CF0C1FC0D4B186004200CF0BCFCE4
:103360000B4B186002200CF0B7FC0A4B8A21186046
:1033700009480BF081FF0421084B01930DEB01007C
:103380000BF0B8FF03B05DF804FB00BF0C09002090
:103390001009002008090020B5020A0801010003F5
:1033A00070B50BF0B3F908B10BF04AF90AF02AFF37
:1033B00008B10AF0F3FE0BF0BBFF08B10BF0C0FF41
:1033C000084E094D3068094C0CF088FC28680CF058
:1033D00085FC20680CF082FC002333602B602360A6
:1033E00070BD00BF0C090020100900200809002052
:1033F0000B4B10B4196800238A1C12F8014B5CB9FE
:103400000B4498700B7843EA102008705DF8044B69
:10341000082200200BF04EBF0133062BEDD1F1E75F
:103420000C0900200C4B196830B48A1C0023C4B26C
:1034300012F8015BA5420BD10B4400229A700B7865
:1034400023EA1020087030BC082200200BF032BFA5
:103450000133062BECD1F2E70C090020044B19686C
:103460000020C1F80200C880087008220BF022BFBB
:103470000C090020044B19680B8803B9088002224C
:1034800010460BF017BF00BF08090020064B196853
:103490000B88834208BF00234FF0020204BF0B7069
:1034A0004B7010460BF006BF08090020044B19684A
:1034B000022200230B704B7010460BF0FBBE00BFC6
:1034C0000809002010B5074C236804225870997031
:1034D000012019460BF0EEFE236800225A709A7004
:1034E00010BD00BF10090020044B19680B78184369
:1034F0000870042201200BF0DDBE00BF100900207F
:10350000044B19680B7823EA00000870042201209C
:103510000BF0D0BE10090020034B196800230B707C
:10352000042201200BF0C6BE1009002010B5054C86
:1035300021680422C87001200BF0BCFE2368002221
:10354000DA7010BD1009002008B50BF0DFF808B9DB
:103550000AF01AFF0AF056FE08B90AF0BDFEFEF79F
:10356000CBFD18B9BDE80840FEF77CBC08BDFEF7EE
:103570001DBDFEF735BD431E58425841FEF7FCBD48
:10358000B1F5F37F01D8FEF7BFBD0020704708B545
:103590000BF0BCF808B10BF053F80AF033FE08B199
:1035A0000AF0FCFDFEF7A8FD18B1BDE80840FEF7E3
:1035B0004BBD08BD4FF0B042136823F0F003184331
:1035C000106070474FF0B04382B09A6C02439A6427
:1035D0009B6C18400190019B02B070474FF0B043C4
:1035E00082B0DA6C0243DA64DB6C18400190019B14
:1035F00002B070474FF0B04382B01A6D02431A65B3
:103600001B6D18400190019B02B070474FF0B04312
:1036100082B09A6D02439A659B6D18400190019BA0
:1036200002B070474FF0B04382B01A6E02431A6680
:103630001B6E18400190019B02B0704707B51B48F4
:1036400012F09EFA1A4B186812F078FA0120FFF770
:10365000C5FF0220FFF7C2FF0420FFF7BFFF0820CD
:10366000FFF7BCFF1020FFF7B9FF8020FFF7B6FF80
:103670004FF48050FFF7D6FF4FF48040FFF7C6FFAE
:103680004FF0B0434FF40010DA6D42F02002DA65DB
:10369000DB6D03F020030193019BFFF7B7FF4FF4AD
:1036A000000003B05DF804EBFFF7B0BF00093D0078
:1036B000B00000204FF0B0439A6D22F400129A65DA
:1036C0009A6D22F400029A651A6E22F480521A66EC
:1036D0009A6D22F480429A65DA6C22F00102DA6473
:1036E000DA6C22F00202DA64DA6C22F00402DA64A4
:1036F000DA6C22F00802DA64DA6C22F01002DA6482
:10370000DA6C22F08002DA6470470000CC4A136859
:1037100023F0070343F0030313B51360136803F0AA
:103720000703032BFAD14FF0B043C64AC3F89C20DD
:10373000D3F89C2022F47C5242F41852C3F89C2007
:103740001A6842F480321A601A6842F480721A6071
:103750001A689003FCD51A685105F9D51A68BA4958
:1037600042F400221A600A6842F480720A60D3F8B8
:10377000902042F01802C3F89020D3F8902042F035
:103780000102C3F89020D3F8942042F00102C3F85C
:1037900094204FF0B043D3F890209207FBD5D3F894
:1037A00094209407F7D5A94AD2F8801041F48021DB
:1037B000C2F88010116841F4802111609A69A4490F
:1037C00042F400729A61D3F8942010015EBFD3F8DE
:1037D000902042F02002C3F890204FF0B043DA6806
:1037E00011409C4A0A43DA601A6842F080721A60FB
:1037F000DA6842F08052DA601A689101FCD5DA6822
:1038000022F0730242F01302DA601A6922F0606259
:1038100022F4FE4242F0007242F4C0621A61DA6899
:1038200022F0730242F01302DA601A6922F0604259
:1038300022F4FE4242F0005242F4C0621A611A6859
:1038400042F080621A601A6942F080721A611A6945
:1038500042F080521A614FF0B0431A681201FCD551
:103860009A6822F0F0029A60D3F8082122F0F00260
:1038700042F08002C3F808219A6842F003029A607D
:103880004FF0B0439A6802F00C020C2AFAD1D3F838
:10389000082122F00F02C3F808219A6822F4E0629E
:1038A0009A609A6822F460529A601A6822F00102C3
:1038B0001A604FF0B042146814F00204FBD166485D
:1038C00012F05EF9654B186812F038F94FF0E022FB
:1038D0004FF0B041136943F002031361604BDB68A2
:1038E000C3F302231A1D062AC3F1070288BFDC1E98
:1038F000042A28BF04224FF0FF339340DB43A34048
:10390000574A1B01DBB282F82330D1F8883023F00C
:103910000303C1F88830D1F8883023F44063C1F83C
:103920008830D1F8883023F0405343F08053C1F8F9
:103930008830D1F8883023F44053C1F88830D1F86A
:10394000883023F04043C1F88830D1F8883023F024
:10395000406343F08063C1F88830D1F8883023F0A9
:10396000406343F08063C1F888304B6A23F003035F
:1039700043F002034B624B6A23F0300343F0100321
:103980004B62D1F8943023F4404343F48043C1F8B0
:1039900094300120FFF716FE0220FFF713FE0420EB
:1039A000FFF710FE4FF48050FFF70CFE0120FFF7E9
:1039B00015FE0220FFF712FE0420FFF70FFE08207D
:1039C000FFF70CFE1020FFF709FE8020FFF706FE30
:1039D0004FF40050FFF702FE4FF48030FFF7FEFD7A
:1039E0004FF48030FFF706FE4FF40030FFF702FE81
:1039F0004FF48020FFF7FEFD4FF40020FFF7FAFDA3
:103A00004FF48010FFF7F6FD4FF00070FFF7F2FD66
:103A10000120FFF7FBFD4FF48060FFF7F7FD4FF447
:103A20008040FFF7F3FD4FF40010FFF7EFFD4FF478
:103A30000000FFF7EBFD4FF08070FFF7E7FD11E0AE
:103A400000400058FECAFECA000400580008005892
:103A50008C80FF1F130800200090D003B0000020CE
:103A600000ED00E04FF08060FFF7D0FD4FF0004028
:103A7000FFF7CCFDCB6D43F00103CB65CB6D104957
:103A800003F0010301934FF40060019BFFF7CAFDAF
:103A90004FF48050FFF7C6FD4FF48040FFF7C2FDA2
:103AA0004FF40030FFF7BEFD4FF48020FFF7BAFD62
:103AB000044A042002B0BDE810400CF0A5B800BFD5
:103AC0003F030A088CA309084FF0B0431A6842F478
:103AD00080721A601A685205FCD59A6822F00302B7
:103AE00042F001029A605A6A22F003025A624FF0D1
:103AF000B042936803F00C03042BFAD1034A136815
:103B000023F0070343F0010313607047004000589F
:103B10004FF0B0431A6842F480321A601A6842F0DB
:103B200080721A601A689103FCD54FF0B0431A688E
:103B30009201FCD50C490A6822F0070242F0030208
:103B40000A609A6842F003029A605A6A22F00302FD
:103B500042F002025A624FF0B042936803F00C0345
:103B60000C2BFAD1704700BF004000584FF0E02204
:103B7000136923F00103136170474FF0E0221369CA
:103B800043F001031361704708B54FF0B04338B9F3
:103B90009A6822F0FE42114341F00061996008BD2D
:103BA000012806D19A6822F0FE42114341F080714B
:103BB000F4E71A6842F001021A601A689207FCD50D
:103BC00002380B280AD8DFE800F006131517191B76
:103BD0001D1F212325270020FFF7ECFC4FF0B042EA
:103BE000936823F0FE43194341F000719160D6E7DA
:103BF0001020F1E72020EFE73020EDE74020EBE751
:103C00005020E9E76020E7E77020E5E78020E3E760
:103C10009020E1E7A020DFE7B020DDE74FF0B043E0
:103C20009A6822F0FE429A601A6822F001021A6035
:103C30001A689207FCD4704738B540F604100CF0AF
:103C40004BF80F4D04230446286008224FF480618E
:103C5000184449F0E2FF2B682060186849F0D7FF4C
:103C600028684FF48062002100F2045056F070F989
:103C7000BDE83840034A044904200BF0C5BF00BF2B
:103C8000140900208CA309084C030A0873B50378B3
:103C90000C4623B3134D42882E6800230193011D67
:103CA00001AB306849F0D8FF286801AB00F204513D
:103CB0004FF48062006849F0EDFF0128F4D02B68D2
:103CC000186849F0A4FF2D684FF4A062281D002158
:103CD00005F2045556F03CF9256002B070BD013084
:103CE0000860FAE71409002008B54FF4613100209C
:103CF00008F088FE014B01221A7008BD1809002047
:103D000000221146104608B508F0BEFF064AD369E6
:103D10005B06FCD54FF46131002008F013FE034B25
:103D200001221A7008BD00BF0038014018090020A8
:103D3000034AD3695B06FCD5024B00221A70704718
:103D40000038014018090020F8B507460E46EFF389
:103D50000583CBB9EFF31084003C18BF012410F0A9
:103D60008BFB054694B1EFF311834FF0500282F3C1
:103D70001188BFF36F8FBFF34F8F0C4AC2E90176F2
:103D800064B183F31188F8BD0124E8E7022803D168
:103D900011F028F82346F0E772B6FBE7022D03D1B5
:103DA000BDE8F84011F02EB862B6ECE71809002023
:103DB0002DE9F843DFF88C9099F8003007468846E3
:103DC0004BB3EFF3058343BBEFF31084003C18BF04
:103DD000012410F051FB06460CB3EFF311854FF0B0
:103DE000500383F31188BFF36F8FBFF34F8FD9F860
:103DF000043023B1D9F80820414638469847424656
:103E00003946002008F01AFF0D4AD3695B06FCD53D
:103E10006CB185F31188BDE8F8830124D9E7022845
:103E200003D110F0DFFF2546E1E772B6FBE7022E73
:103E300003D1BDE8F84310F0E5BF62B6EBE700BF81
:103E40000038014018090020204B1B782DE9F04173
:103E50000746884633B3EFF305832BBBEFF310849B
:103E6000003C18BF012410F007FB0646F4B1EFF345
:103E700011854FF0500383F31188BFF36F8FBFF3A9
:103E80004F8F42463946002008F0D8FE02221049E2
:103E9000002008F0D3FE0F4AD3695B06FCD56CB155
:103EA00085F31188BDE8F0810124DCE7022803D105
:103EB00010F098FF2546E4E772B6FBE7022E03D127
:103EC000BDE8F04110F09EBF62B6EBE71809002094
:103ED0006F8A0908003801400FB437B506A951F8B8
:103EE000040B01910DF0EFFA04460DF0C3FB0546FB
:103EF00020460DF041FC01462846FFF759FF2046B9
:103F00000DF011FB03B0BDE8304004B0704710B5B0
:103F1000044656F05FFA01462046BDE81040FFF720
:103F200047BF0000094AD2F8FC3043F08073C2F862
:103F3000FC30074B1A6842F001021A6000225A60F6
:103F4000044A136843F480731360704700ED00E087
:103F5000001000E000400058064A074B51681B68FB
:103F600010B5064CB3FBF4F3584353685B1A834215
:103F7000FBD310BD001000E0B000002040420F0055
:103F8000024B1868024BB0FBF3F07047B000002002
:103F900040420F0030B5054B054D5C68054B1B6872
:103FA000B3FBF5F35943C0E9004130BD001000E018
:103FB00040420F00B000002082B002AB03E90300D2
:103FC000044B5B681B1A8B42084634BF002001205B
:103FD00002B07047001000E082B002AB03E90300BA
:103FE0000146019A034843685B1A9342FBD302B02F
:103FF000704700BF001000E07FB5531E032B04463E
:10400000084603D9DFF86CC00BF0F8FB0023184911
:104010001D46DEB2B24284BF54F823608E6003F1C5
:10402000010398BF8D60042BF3D1114C4FF47A73C8
:104030004FF0E0256168C90712D5236843F080037B
:104040002360E3680093E3680193E3680293E36805
:1040500003939200694655F053FF012004B070BDF0
:104060002969CE03E6D5013BE4D11846F6E700BF47
:10407000000006505457090808B500200CF01EFC3B
:10408000044B054A18600549BDE8084004200BF0C0
:10409000BBBD00BF280900208CA309085C030A08E7
:1040A000F0B5244D8DB007460E4628684FF0FF311D
:1040B0000CF028FC044610B1DFF87CC030E0FEF7BD
:1040C000E3FFE0B13A78E2B902238DF800307B7863
:1040D00043BB102379688DF801301A440DF10200BA
:1040E00055F00EFF3146684611F061FD0446286820
:1040F0000CF02AFC0028DFD1B4FA84F040090DB09E
:10410000F0BD012A03D18DF800202246DFE7022A04
:1041100004D103238DF800300C22D8E7DFF81CC04F
:104120000BF06CFB012B01D12023D3E7DFF810C08B
:10413000F6E700BF28090020545709086A030A0857
:104140007D030A082DE9F041DFF8848007460D461B
:10415000D8F800004FF0FF310CF0D4FB044618B142
:10416000DFF870C00BF04AFBFEF78EFF064630B357
:10417000154B1C70154C236823F001032360236842
:1041800023F4A02323F0660343F4802343F02003A9
:1041900023602B68E3626B68A362AB686362EB68C1
:1041A0002362384611F019FD50B12368D8F8000099
:1041B00023F0010323600CF0C7FB0028D0D10026B8
:1041C0003046BDE8F08100BF240900200000065001
:1041D000280900205457090870B50446FEF754FF1B
:1041E000002848D0244A136823F0010313602046B6
:1041F00011F00FFD0446EFF3058343BBEFF3108589
:10420000003D18BF012510F037F906460DB3EFF356
:1042100011834FF0500282F31188BFF36F8FBFF309
:104220004F8F4FF0B042D16A41F48031D162D16AF0
:1042300021F48031D162A5B183F311880F4B186846
:104240000CF082FBA0B1DFF838C00BF0D7FA0125E3
:10425000D9E7022803D110F0C5FD2B46E1E772B67D
:10426000FBE7022E02D110F0CDFDE7E762B6E5E7ED
:10427000B4FA84F0400970BD0000065028090020FF
:1042800054570908F8B5124B15461A6842F0010256
:104290001A601A68002422F0180206460F461A60B7
:1042A0002046AC4205D30A4A136823F00103136089
:1042B000F8BD2A1B102A28BF1022C2F38702391921
:1042C0003019FFF799FE0028EDD01034E9E700BF60
:1042D000000006502DE9F04F4FF0000ADFF878B0EB
:1042E00085B006468946012754465546184B5FFA65
:1042F00087F803EB0A014046FFF724FFB0B1154BE6
:1043000001351022694603EB0A00EDB2FFF7BAFF50
:1043100048B110220BEB0A01684655F0E1FD002878
:1043200008BF0134E4B24046FFF756FF0AF1100A15
:10433000BAF1A00F07F10107D8D1A4F10A0358423E
:104340005841357089F8004005B0BDE8F08F00BFD6
:1043500004050A0864040A08C4030A08F0B593B007
:10436000002406460DF10E010DF10D00CDE90644C5
:10437000CDE908448DF80D408DF80E40FFF7AAFFF7
:104380000A2E9DF80D0006D8B04234BF0024012447
:10439000204613B0F0BD0928FAD9354606A92846AB
:1043A000FFF7D0FE0446C0B12846FFF715FFAE4226
:1043B000EED00135EDB22B46174A1849009604207D
:1043C0000BF022FC40F201178DF80F500AAD9DF85A
:1043D0000F30B34206D90124DAE7013DEDB20A2DD0
:1043E000DCD1E6E720212846ADF81070059505F0F0
:1043F0005BFA0DF10F0104A8FFF752FE9DF80F3094
:10440000044628B9064A054902200BF0FDFBBFE728
:1044100001338DF80F30DAE790030A085C030A08CD
:10442000A7030A08F8B50F4623490646087815463B
:10443000B8B9224B1A6822F0180242F008021A603A
:104440001A6842F001021A604FF0E02C4FF47A72C1
:104450005C68E4071AD51A6842F080021A600123EA
:104460000B70164A136823F0180343F0100313600F
:104470001368002443F0010313602046AC420CD3C0
:104480000E4A136823F00103136005E0DCF81040C6
:10449000E403DDD5013ADBD1F8BD2A1B102A28BF81
:1044A0001022C2F3870239193019FFF7A5FD002841
:1044B000E6D01034E2E700BF2409002000000650D7
:1044C0000A4B5A6842F001025A605A6842F00202EE
:1044D0005A605A6842F004025A60054AD2F8903095
:1044E00043F48033C2F89030704700BF002004E0EE
:1044F000000800580A4B5A6822F001025A605A68B4
:1045000022F002025A605A6822F004025A60054AF8
:10451000D2F8903023F48033C2F89030704700BF57
:10452000002004E00008005808B5DFF808C00BF0D0
:1045300065F900BF5457090808B50A4B5A69002AA3
:1045400003DBDFF828C00BF059F9074A9A60BFF384
:104550006F8F02F188329A605B69002B01DAFFF7F6
:10456000E3FF08BD00400058230167455457090880
:1045700008B5084B5A69002A03DADFF81CC00BF0B3
:104580003DF95A6942F000425A615B69002BF4DA46
:1045900008BD00BF004000585457090838B504460C
:1045A000FEF772FDD0B10F4B0F4D4FF48062DA6110
:1045B00010F028FC286910F480300CD10CB111F0F7
:1045C00045FBFFF7D5FF074B4FF480629A60BDE8CB
:1045D0003840FEF723BC0DF011FCEBE7FFF7C8FFF6
:1045E000F5E700BF001400580040005873B50446BA
:1045F000FEF702FCFEF748FD58B3194D194ED5F8E9
:104600008830B34202D00DF0F9FBF8E7FFF794FFD2
:1046100014B1012011F01AFB00230193019B222BFE
:1046200008D9114D0E4C0F4E2B691B0305D50DF00B
:10463000E5FBF9E7019B0133EFE710F0D3FBA3693A
:10464000002B03DBD4F89C30B34207D010F0DAFB28
:10465000EDE702B0BDE87040FFF76EBF02B070BD7D
:104660000014005800040080004000584FF0006023
:10467000704708207047082070474FF480507047FB
:1046800042F2107070470000034BD3F88000C0B2B4
:1046900000F500400003704700400058044B23F42D
:1046A0007F6020F00F00834218BF00F580507047F4
:1046B000AC9A0B08074A08B5FFF7E6FF22F47F63C0
:1046C00023F00F039A4218BF03F58053C01A000B62
:1046D00008BD00BFAC9A0B0838B5074C23694CF2F3
:1046E000FA352B4206D02369044A054902200BF013
:1046F0008BFA256138BD00BF00400058A4050A08A8
:10470000B6050A08184B10B502464FF0E0241969A7
:10471000C9030ED41969CA0742BF1A6922F00102FF
:104720001A614CF2FA3319420CD0DFF840C00BF09A
:1047300065F82169C90348BF02F1FF32002AE6D1BA
:10474000002010BD084B1A691A614FF0E0211A6968
:10475000520301D40120F4E70A69D40348BF00F1F1
:10476000FF300028F3D1EBE7004000585457090808
:1047700008B50B680360BFF36F8F4B6843604FF45D
:104780007A70FFF7BFFF18B9DFF808C00BF036F8F2
:1047900008BD00BF5457090838B5294C054601200B
:1047A000FFF724FF23691BB1DFF898C00BF026F850
:1047B0004FF47A70FFF7A6FF0028F5D0636923F461
:1047C000FF6343EAC50040F4803040F002006061BE
:1047D0004FF47A70FFF796FF0028E5D0636923F461
:1047E000FF6323F002036361236899050FD52368F3
:1047F00023F400732360236843F400632360236879
:1048000023F400632360236843F4007323600C4B9C
:104810001A6852050FD51A6822F480621A601A6865
:1048200042F480521A601A6822F480521A601A68A0
:1048300042F480621A60BDE838400120FFF7AEBE46
:10484000004000585457090873B51A4D044600201B
:10485000CDE90023FFF7CAFE2B691BB1DFF860C06A
:104860000AF0CCFF14F00706F8D1B4F1006FF5D3CD
:10487000114BB3F8E020114B03EA822303F10063EC
:10488000083BA342EAD36B6943F001036B616946BD
:104890002046FFF76DFF6B6923F0010330466B6123
:1048A000FFF77CFE4FF47A70FFF72CFF0028D5D07D
:1048B00002B070BD004000580075FF1F00FC1F00D3
:1048C00054570908034BDB6830EA03030CBF01208F
:1048D00000207047000800588288002342FA03F144
:1048E000C907D8B203D40133102BF7D1184670474B
:1048F0000C22054B50431A18195821B1117A11B1E5
:104900001B585068184770472C09002030B50468C0
:1049100091FAA1F3B3FA83F303255B0005FA03F3DD
:1049200024EA030391FAA1F1B1FA81F149008A4026
:104930001343036030BD30B5846891FAA1F3B3FA34
:1049400083F303255B0005FA03F324EA030391FADA
:10495000A1F1B1FA81F149008A401343836030BD6F
:1049600030B5C46891FAA1F3B3FA83F303255B0071
:1049700005FA03F324EA030391FAA1F1B1FA81F1F4
:1049800049008A401343C36030BD00002DE9F04F59
:10499000066885B09B46B6F1904F9DF8383002937B
:1049A00007460D46904662D0894B9E4261D003F582
:1049B00080639E425FD003F580639E425DD003F525
:1049C00080639E420CBF04260726BB88012B56D06D
:1049D000022B58D0042B59D0082B5AD0102B5BD067
:1049E000202B5BD0402B5BD0802B5BD0B3F5807F3E
:1049F0005AD0B3F5007F59D0B3F5806F5AD0B3F5D4
:104A0000006F59D0B3F5805F58D0B3F5005F57D031
:104A1000B3F5804F6F4B704C12BF4FF4004A1C46E9
:104A20004FF4804AEFF30582002A4BD1EFF310894F
:104A3000B9F1000918BF4FF001090FF01DFD0190F9
:104A4000B9F1000F41D0EFF311834FF0500282F320
:104A50001188BFF36F8FBFF34F8F00933868B98809
:104A6000BBF1030F3ED8DFE80BF03A939597002691
:104A7000ABE70126A9E70226A7E70326A5E74FF43F
:104A800070249A46CEE74FF47004FAE74FF0706452
:104A9000F7E74FF07044F4E7504CF2E7504CF0E782
:104AA000504CEEE7504CECE7504CEAE7504C4FF4DA
:104AB000007AB7E74F4CE4E74F4CE2E74F4CE0E7B2
:104AC0004F4CDEE74FF00109B7E7019B022B04D101
:104AD00010F088F9CDF80090C0E772B6FAE700222E
:104AE000FFF729FFB8F1010F3868B98805D0B8F190
:104AF000020F02D0B8F1000F02D14246FFF730FF9B
:104B0000052D04F0030BD7F80080B9884FEA144450
:104B10007AD94FEA8B0B0BF1804B0BF5803B0022CF
:104B20004046FFF7F3FEDBF8082022EA040294FA7D
:104B3000A4F4B4FA84F404F00F04A6401643062D3E
:104B4000CBF8086001D0082D0AD12E4AD2F8801087
:104B50004AEA0101C2F8801011684AEA01011160B5
:104B6000EA1F012A1AD8274AD2F880104AEA01011E
:104B7000C2F8801051684AEA01015160B9F1000F92
:104B800000F0C780009B83F3118805B0BDE8F08F6B
:104B90000122A5E70222A3E70322A1E705F0FD0217
:104BA000092A0AD1174AD2F884104AEA0101C2F848
:104BB000841011684AEA010111600A3D012DDDD817
:104BC000104AD2F884104AEA0101C2F88410D1E7F1
:104BD000000400480300000F030000F001000F0074
:104BE0000100F0000100000F010000F002000F00C2
:104BF0000200F0000200000F020000F003000F00AE
:104C00000300F000000800580BF1020B464A52F86E
:104C10002B20224094FAA4F4B4FA84F404F00F0494
:104C200022FA04F4A64213D1404AD2F880003AEAAC
:104C300000030DD1D2F8800020EA0A00C2F88000FB
:104C4000106820EA0A001060506820EA0A035360E6
:104C5000EB1E012B1DD838460391FFF73DFE0728B8
:104C600003991ED8D8F8203091FAA1F2B2FA82F254
:104C70000F20920000FA02F223EA020291FAA1F355
:104C80000298B3FA83F39B00984003461343C8F895
:104C90002030013D042D1DD8DFE805F021312935F4
:104CA0003900D8F824000B0A93FAA3F2B2FA82F280
:104CB0000F24920004FA02F220EA020293FAA3F30C
:104CC0000298B3FA83F39B00984003461343C8F855
:104CD0002430DEE700224046FFF718FE4EE7D8F802
:104CE000043023EA0103C8F804300122F3E7D8F8BE
:104CF000043023EA0103C8F804300222EBE7D8F8B5
:104D000004300B43EFE7D8F804300B43F3E70322FA
:104D1000E1E7019B022B04D105B0BDE8F04F10F094
:104D200071B862B631E700BF0000014000080058CA
:104D300013B510240094FFF729FE02B010BD002324
:104D40001A46FFF7F5BF00002DE9F8438146884673
:104D50001746EFF3058323BBEFF31084003C18BF25
:104D600001240FF089FB0646ECB1EFF311854FF0FB
:104D7000500383F31188BFF36F8FBFF34F8F484603
:104D8000FFF7AAFD104A0C234343D118D05842F82C
:104D9000038001234F600B726CB185F31188BDE86D
:104DA000F8830124DDE7022803D110F01BF8254623
:104DB000E5E772B6FBE7022E03D1BDE8F84310F039
:104DC00021B862B6EBE700BF2C090020F8B5074612
:104DD000EFF305830BBBEFF31084003C18BF0124F5
:104DE0000FF04AFB0646D4B1EFF311854FF05003A4
:104DF00083F31188BFF36F8FBFF34F8F3846FFF7F0
:104E00006BFD0C220E4B50431A181B580BB101239B
:104E1000137264B185F31188F8BD0124E0E702281C
:104E200003D10FF0DFFF2546E8E772B6FBE7022E5D
:104E300003D1BDE8F8400FF0E5BF62B6ECE700BF74
:104E40002C090020F8B50746EFF30583FBB9EFF313
:104E50001084003C18BF01240FF00EFB0646C4B1BD
:104E6000EFF311854FF0500383F31188BFF36F8F79
:104E7000BFF34F8F3846FFF72FFD0E4B0C2202FB7E
:104E800000300023037264B185F31188F8BD01245A
:104E9000E2E7022803D10FF0A5FF2546EAE772B644
:104EA000FBE7022E03D1BDE8F8400FF0ABBF62B6BE
:104EB000ECE700BF2C090020F8B50746EFF30583A7
:104EC0000BBBEFF31084003C18BF01240FF0D4FAA1
:104ED0000646D4B1EFF311854FF0500383F31188E8
:104EE000BFF36F8FBFF34F8F3846FFF7F5FC0F49C5
:104EF0000C2358430A1800230B505360137264B1FB
:104F000085F31188F8BD0124E0E7022803D10FF0F2
:104F100069FF2546E8E772B6FBE7022E03D1BDE83C
:104F2000F8400FF06FBF62B6ECE700BF2C0900201D
:104F300008B50120FFF7C6FC38B1044B0122DA6046
:104F40000020BDE80840FFF7D3BC08BD00080058AA
:104F500008B50220FFF7B6FC38B1044B0222DA6034
:104F60000120BDE80840FFF7C3BC08BD0008005899
:104F700008B50420FFF7A6FC38B1044B0422DA6020
:104F80000220BDE80840FFF7B3BC08BD0008005888
:104F900008B50820FFF796FC38B1044B0822DA6008
:104FA0000320BDE80840FFF7A3BC08BD0008005877
:104FB00008B51020FFF786FC38B1044B1022DA60E8
:104FC0000420BDE80840FFF793BC08BD0008005866
:104FD00008B52020FFF776FC28B11A4B2022DA60B2
:104FE0000520FFF785FC4020FFF76CFC28B1154B2E
:104FF0004022DA600620FFF77BFC8020FFF762FC8E
:1050000028B1104B8022DA600720FFF771FC4FF4C3
:105010008070FFF757FC30B10A4B4FF48072DA60B2
:105020000820FFF765FC4FF40070FFF74BFC40B120
:10503000044B4FF40072DA600920BDE80840FFF726
:1050400057BC08BD0008005808B54FF48060FFF752
:1050500039FC30B1224B4FF48062DA600A20FFF74E
:1050600047FC4FF40060FFF72DFC30B11C4B4FF4B0
:105070000062DA600B20FFF73BFC4FF48050FFF733
:1050800021FC30B1164B4FF48052DA600C20FFF750
:105090002FFC4FF40050FFF715FC30B1104B4FF4CC
:1050A0000052DA600D20FFF723FC4FF48040FFF739
:1050B00009FC30B10A4B4FF48042DA600E20FFF752
:1050C00017FC4FF40040FFF7FDFB40B1044B4FF4D9
:1050D0000042DA600F20BDE80840FFF709BC08BDB8
:1050E000000800580148002183681847400100204B
:1050F00001480121836818474001002008B5054890
:10510000002183689847BDE80840034A034904200A
:105110000AF07ABD340100208CA30908C3050A08EF
:1051200070B5044603F0A2FA20680221836898470C
:10513000206845681DB1DFF81CC00AF05FFB83687A
:10514000446004219847636829462046BDE87040C2
:10515000184700BF54570908026810B554688442C4
:1051600003D0DFF828C00AF049FB636801219847A3
:105170002068052183689847206800234360032145
:1051800083689847BDE8104003F0A6BA5457090851
:105190002DE9F3411D4603685B68834206460C46D1
:1051A000904603D0DFF890C00AF028FB089B6F46BA
:1051B0004FF47A7159433846FEF7ECFE33681B68AA
:1051C0009A69100429D597E80300FEF7F5FE002838
:1051D000F4D000201CE09A69910742BF18F8012B17
:1051E0009A6205F1FF3597E8030048BFEDB2FEF77C
:1051F000E3FE80B933681B689A699206EBD5002DEF
:10520000E9D1012033681A68D36943F02003D361E0
:1052100002B0BDE8F0810020F4E75A6844EA054195
:10522000044C1440214341F0024141F400515960C3
:10523000E0E700BF008000FC545709082DE9F34166
:105240001D4603685B68834206460C46904603D0C1
:10525000DFF890C00AF0D2FA089B6F464FF47A71DB
:1052600059433846FEF796FE33681B689A69100466
:1052700029D597E80300FEF79FFE0028F4D0002010
:105280001CE09A69510742BF5B6A08F8013B05F1CF
:10529000FF3597E8030048BFEDB2FEF78DFE80B9F9
:1052A00033681B689A699206EBD5002DE9D101207D
:1052B00033681A68D36943F02003D36102B0BDE8B4
:1052C000F0810020F4E75A6844EA0541044C144098
:1052D000214341F0024141F410515960E0E700BF21
:1052E000008000FC545709082DE9F3410A9E0096FE
:1052F000089F9DF8248004460D46FFF749FF48B1FA
:1053000043463A4629462046089602B0BDE8F04199
:10531000FFF794BF02B0BDE8F081000073B50E4600
:10532000054618B9DFF8C0C00AF068FA03685B6880
:105330008342F7D16C464FF47A7151432046FEF711
:1053400029FE2B681B689A69110409D594E80300AB
:10535000FEF732FE0028F4D00026304602B070BDC1
:1053600046F0007646F400565E602B681B689A692A
:10537000D20609D49A69960606D494E80300FEF78B
:105380001BFE0028F1D0E7E79B69D80624D52B68DF
:105390001B689A69910606D494E80300FEF70CFE98
:1053A0000028F4D0D8E7DA6942F01002DA61DA694D
:1053B00042F02002DA615A6842F480425A600026C4
:1053C0002B681B689A69920608D494E80300FEF7DC
:1053D000F3FD0028F4D0BFE70126F1E7DA6942F0D7
:1053E0002002DA61B9E700BF545709087FB58DF88C
:1053F000172018B9DFF820C00AF000FA089A0292C4
:105400000122CDE9003213460DF11702FFF76CFFC0
:1054100007B05DF804FB00BF5457090810B588B009
:105420001C468DF8172018B9DFF828C00AF0E6F9F5
:105430000A9B02930223019307AB00930DF117021D
:105440000123FFF751FFBDF81C305BBA238008B081
:1054500010BD00BF545709087FB58DF8172018B943
:10546000DFF820C00AF0CAF9099A02929DF82020BC
:10547000CDE9003201230DF11702FFF735FF07B028
:105480005DF804FB545709081FB518B9DFF820C0B0
:105490000AF0B4F98DF80D30069B8DF80C200093BE
:1054A00003AA0223FFF774FE05B05DF804FB00BFFA
:1054B000545709081FB518B9DFF824C00AF09EF93F
:1054C0008DF80C208DF80E301A0A069B8DF80D20F1
:1054D000009303AA0323FFF75BFE05B05DF804FB0E
:1054E000545709082DE9F74F8B4690461F4605464D
:1054F00018B9DFF8BCC00AF081F903685B68834221
:10550000F7D10D9B6E464FF47A7159433046FEF742
:1055100041FD2B681B689A6910042FD596E803009B
:10552000FEF74AFD0028F4D0002022E09A69910796
:105530000BD5D14514BF17F8012BC3F8288009F10A
:10554000FF3918BF9A625FFA89F996E80300FEF7FF
:1055500033FD88B92B681B689A699206E6D5B9F1C4
:10556000000FE3D101202B681A68D36943F02003B0
:10557000D36103B0BDE8F08F0020F4E75C689DF8CC
:1055800030A024F07F7424F45F3424F47F740AF193
:10559000010A24F003045FFA8AF944EA0B0141EAA4
:1055A000094141F0024141F400515960D2E700BF86
:1055B0005457090870B505468AB00C4600293BD1FE
:1055C00004260B460A462C4800963146FFF7DEF9C2
:1055D00023462246314629480096FFF7D7F9CDE900
:1055E0000544CDE907440394099408F0D9FC244A02
:1055F000244B0A2898BF134604932B6803A9186804
:105600000FF046FE2B681B685A6842F000725A6021
:10561000DA6822F4FF6222F00602DA60DA6822F425
:105620000042DA601A6822F400221A601A6822F432
:1056300000321A600AB070BD0129FBD103680E4820
:105640001A680E4C136823F0010313600368828804
:105650009A612368A2889A61102500231A46009552
:105660000521FFF793F9002300951A4605212046EE
:10567000FFF78CF9DEE700BF3C0C0A08340C0A087F
:10568000BC7D70107321600070B505468AB00C4671
:10569000002935D104260B460A4629480096314692
:1056A000FFF774F922462748009623463146FFF754
:1056B0006DF9254B04932B6803941868099403A98A
:1056C000CDE90544CDE907440FF0E2FD2B681B68E6
:1056D0005A6842F000725A60DA6822F4FF6222F0DF
:1056E0000602DA60DA6822F40042DA601A6822F40C
:1056F00000221A601A6822F400321A600AB070BDE3
:105700000129FBD103680E481A680E4C136823F078
:1057100001031360036882889A612368A2889A61F2
:10572000102500231A4600950521FFF72FF90023C5
:1057300000951A4605212046FFF728F9DEE700BF4D
:105740001C0C0A08240C0A08BC7D701070B50646B3
:105750000C4600293DD108460BF0B0F86F4B18609D
:10576000EFF3058323BBEFF31084003C18BF012443
:105770000EF082FE0546ECB1EFF311834FF05002BC
:1057800082F31188BFF36F8FBFF34F8F4FF0B0429A
:10579000D2F8881021F44031C2F88810916B41F49E
:1057A0000001916374B183F311880023736070BDAD
:1057B0000124DDE7022803D10FF014FB2346E5E7BF
:1057C00072B6FBE7022D02D10FF01CFBEDE762B6CB
:1057D000EBE7012935D1514B18680BF08DF8EFF349
:1057E000058323B9EFF31084003C18BF01240EF0A9
:1057F00043FE0546BCB1EFF311834FF0500282F334
:105800001188BFF36F8FBFF34F8F4FF0B042916B92
:1058100041F400019163916B21F40001916354B153
:1058200083F31188C3E7022803D10FF0DBFA234684
:10583000EBE772B6FBE7022D6DD1BDE870400FF0CB
:10584000E1BA02290BD1354B4FF0FF3118680BF04C
:1058500059F80028ABD0DFF8C8C009F0CFFF032902
:1058600004D12E4B18680BF06FF8F2E7042928D109
:10587000EFF30583DBB9EFF31084003C18BF01247C
:105880000EF0FAFD0546A4B1EFF311834FF050027C
:1058900082F31188BFF36F8FBFF34F8F4FF0B04289
:1058A000D2F8881021F44031C2F88810B3E70124FF
:1058B000E6E7022803D10FF095FA2346EEE772B629
:1058C000FBE705297FF473AFEFF30583CBB9EFF363
:1058D0001084003C18BF01240EF0CEFD054694B1A3
:1058E000EFF311834FF0500282F31188BFF36F8FF3
:1058F000BFF34F8F4FF0B0418A6B42F400028A63CE
:105900008DE70124E8E7022803D10FF06BFA234664
:10591000F0E772B6FBE762B649E700BFEC0900208A
:105920005457090870B506460C4600293DD1084673
:105930000AF0C4FF6D4B1860EFF3058323BBEFF350
:105940001084003C18BF01240EF096FD0546ECB112
:10595000EFF311834FF0500282F31188BFF36F8F82
:10596000BFF34F8F4FF0B042D2F8881021F440516E
:10597000C2F88810916B41F40011916374B183F304
:1059800011880023736070BD0124DDE7022803D174
:105990000FF028FA2346E5E772B6FBE7022D02D1A5
:1059A0000FF030FAEDE762B6EBE7012935D14F4B46
:1059B00018680AF0A1FFEFF3058323B9EFF3108411
:1059C000003C18BF01240EF057FD0546BCB1EFF3B3
:1059D00011834FF0500282F31188BFF36F8FBFF332
:1059E0004F8F4FF0B042916B41F400119163916B76
:1059F00021F40011916354B183F31188C3E70228A5
:105A000003D10FF0EFF92346EBE772B6FBE7022D67
:105A10006AD1BDE870400FF0F5B902290BD1334BC4
:105A20004FF0FF3118680AF06DFF0028ABD0DFF8A7
:105A3000C0C009F0E3FE032904D12C4B18680AF01A
:105A400083FFF2E7042926D1EFF30583CBB9EFF307
:105A50001084003C18BF01240EF00EFD054694B1E1
:105A6000EFF311834FF0500282F31188BFF36F8F71
:105A7000BFF34F8F4FF0B0418A6B22F400128A635C
:105A8000B9E70124E8E7022803D10FF0ABF9234678
:105A9000F0E772B6FBE705297FF475AFEFF30583F6
:105AA000C3B9EFF31084003C18BF01240EF0E4FCEE
:105AB00005468CB1EFF311834FF0500282F3118849
:105AC000BFF36F8FBFF34F8F4FF0B0418A6B42F43B
:105AD0000012D4E70124E9E7022803D10FF082F98C
